{
  "contractName": "FlightSuretyApp",
  "abi": [
    {
      "inputs": [
        {
          "internalType": "address",
          "name": "dataContract",
          "type": "address"
        }
      ],
      "payable": false,
      "stateMutability": "nonpayable",
      "type": "constructor",
      "signature": "constructor"
    },
    {
      "anonymous": false,
      "inputs": [
        {
          "indexed": false,
          "internalType": "address",
          "name": "airline",
          "type": "address"
        },
        {
          "indexed": false,
          "internalType": "string",
          "name": "flight",
          "type": "string"
        },
        {
          "indexed": false,
          "internalType": "uint256",
          "name": "timestamp",
          "type": "uint256"
        },
        {
          "indexed": false,
          "internalType": "uint8",
          "name": "status",
          "type": "uint8"
        }
      ],
      "name": "FlightStatusInfo",
      "type": "event",
      "signature": "0xe23f5229de535c091e3b7bec2665f5d698192d3b31393066e8987b7a05076b6c"
    },
    {
      "anonymous": false,
      "inputs": [
        {
          "indexed": false,
          "internalType": "address",
          "name": "airline",
          "type": "address"
        },
        {
          "indexed": false,
          "internalType": "string",
          "name": "flight",
          "type": "string"
        },
        {
          "indexed": false,
          "internalType": "uint256",
          "name": "timestamp",
          "type": "uint256"
        },
        {
          "indexed": false,
          "internalType": "uint8",
          "name": "status",
          "type": "uint8"
        }
      ],
      "name": "OracleReport",
      "type": "event",
      "signature": "0x43c853095c2752648493c88b4baac4d580d2594ffb00c6f1d4242d844514f783"
    },
    {
      "anonymous": false,
      "inputs": [
        {
          "indexed": false,
          "internalType": "uint8",
          "name": "index",
          "type": "uint8"
        },
        {
          "indexed": false,
          "internalType": "address",
          "name": "airline",
          "type": "address"
        },
        {
          "indexed": false,
          "internalType": "string",
          "name": "flight",
          "type": "string"
        },
        {
          "indexed": false,
          "internalType": "uint256",
          "name": "timestamp",
          "type": "uint256"
        }
      ],
      "name": "OracleRequest",
      "type": "event",
      "signature": "0x3ed01f2c3fc24c6b329d931e35b03e390d23497d22b3f90e15b600343e93df11"
    },
    {
      "constant": true,
      "inputs": [],
      "name": "REGISTRATION_FEE",
      "outputs": [
        {
          "internalType": "uint256",
          "name": "",
          "type": "uint256"
        }
      ],
      "payable": false,
      "stateMutability": "view",
      "type": "function",
      "signature": "0x64b4f751"
    },
    {
      "constant": true,
      "inputs": [],
      "name": "isOperational",
      "outputs": [
        {
          "internalType": "bool",
          "name": "",
          "type": "bool"
        }
      ],
      "payable": false,
      "stateMutability": "view",
      "type": "function",
      "signature": "0xcd905dff"
    },
    {
      "constant": false,
      "inputs": [
        {
          "internalType": "address",
          "name": "dataContract",
          "type": "address"
        }
      ],
      "name": "setDataContract",
      "outputs": [],
      "payable": false,
      "stateMutability": "nonpayable",
      "type": "function",
      "signature": "0x03959bb7"
    },
    {
      "constant": false,
      "inputs": [
        {
          "internalType": "address",
          "name": "airlineAddress",
          "type": "address"
        },
        {
          "internalType": "string",
          "name": "name",
          "type": "string"
        }
      ],
      "name": "registerAirline",
      "outputs": [],
      "payable": false,
      "stateMutability": "nonpayable",
      "type": "function",
      "signature": "0xee38a749"
    },
    {
      "constant": false,
      "inputs": [
        {
          "internalType": "string",
          "name": "flight",
          "type": "string"
        },
        {
          "internalType": "string",
          "name": "destination",
          "type": "string"
        },
        {
          "internalType": "uint256",
          "name": "timestamp",
          "type": "uint256"
        }
      ],
      "name": "registerFlight",
      "outputs": [],
      "payable": false,
      "stateMutability": "nonpayable",
      "type": "function",
      "signature": "0x49b24807"
    },
    {
      "constant": false,
      "inputs": [
        {
          "internalType": "address",
          "name": "airline",
          "type": "address"
        },
        {
          "internalType": "string",
          "name": "flight",
          "type": "string"
        },
        {
          "internalType": "uint256",
          "name": "timestamp",
          "type": "uint256"
        }
      ],
      "name": "fetchFlightStatus",
      "outputs": [],
      "payable": false,
      "stateMutability": "nonpayable",
      "type": "function",
      "signature": "0xf83f11c0"
    },
    {
      "constant": true,
      "inputs": [
        {
          "internalType": "string",
          "name": "flight",
          "type": "string"
        },
        {
          "internalType": "address",
          "name": "airline",
          "type": "address"
        }
      ],
      "name": "viewFlightStatus",
      "outputs": [
        {
          "internalType": "uint8",
          "name": "",
          "type": "uint8"
        }
      ],
      "payable": false,
      "stateMutability": "view",
      "type": "function",
      "signature": "0xb5bb52d7"
    },
    {
      "constant": false,
      "inputs": [],
      "name": "withdrawCredit",
      "outputs": [
        {
          "internalType": "uint256",
          "name": "",
          "type": "uint256"
        },
        {
          "internalType": "uint256",
          "name": "",
          "type": "uint256"
        },
        {
          "internalType": "uint256",
          "name": "",
          "type": "uint256"
        },
        {
          "internalType": "uint256",
          "name": "",
          "type": "uint256"
        },
        {
          "internalType": "address",
          "name": "",
          "type": "address"
        },
        {
          "internalType": "address",
          "name": "",
          "type": "address"
        }
      ],
      "payable": false,
      "stateMutability": "nonpayable",
      "type": "function",
      "signature": "0xc36f3874"
    },
    {
      "constant": false,
      "inputs": [],
      "name": "registerOracle",
      "outputs": [],
      "payable": true,
      "stateMutability": "payable",
      "type": "function",
      "signature": "0x339d2590"
    },
    {
      "constant": true,
      "inputs": [],
      "name": "getMyIndexes",
      "outputs": [
        {
          "internalType": "uint8[3]",
          "name": "",
          "type": "uint8[3]"
        }
      ],
      "payable": false,
      "stateMutability": "view",
      "type": "function",
      "signature": "0x5f1cc0e6"
    },
    {
      "constant": false,
      "inputs": [
        {
          "internalType": "uint8",
          "name": "index",
          "type": "uint8"
        },
        {
          "internalType": "address",
          "name": "airline",
          "type": "address"
        },
        {
          "internalType": "string",
          "name": "flight",
          "type": "string"
        },
        {
          "internalType": "uint256",
          "name": "timestamp",
          "type": "uint256"
        },
        {
          "internalType": "uint8",
          "name": "statusCode",
          "type": "uint8"
        }
      ],
      "name": "submitOracleResponse",
      "outputs": [],
      "payable": false,
      "stateMutability": "nonpayable",
      "type": "function",
      "signature": "0xc10f2700"
    }
  ],
  "bytecode": "0x60806040526000600460006101000a81548160ff021916908360ff16021790555034801561002c57600080fd5b50604051612bb4380380612bb48339818101604052602081101561004f57600080fd5b810190808051906020019092919050505033600160006101000a81548173ffffffffffffffffffffffffffffffffffffffff021916908373ffffffffffffffffffffffffffffffffffffffff160217905550806000806101000a81548173ffffffffffffffffffffffffffffffffffffffff021916908373ffffffffffffffffffffffffffffffffffffffff16021790555050612ac3806100f16000396000f3fe6080604052600436106100b9576000357c010000000000000000000000000000000000000000000000000000000090048063b5bb52d711610081578063b5bb52d71461027c578063c10f27001461033c578063c36f387414610406578063cd905dff146104ac578063ee38a749146104db578063f83f11c0146105c3576100b9565b806303959bb7146100be578063339d25901461010f57806349b24807146101195780635f1cc0e6146101fe57806364b4f75114610251575b600080fd5b3480156100ca57600080fd5b5061010d600480360360208110156100e157600080fd5b81019080803573ffffffffffffffffffffffffffffffffffffffff169060200190929190505050610673565b005b610117610779565b005b34801561012557600080fd5b506101fc6004803603606081101561013c57600080fd5b810190808035906020019064010000000081111561015957600080fd5b82018360208201111561016b57600080fd5b8035906020019184600183028401116401000000008311171561018d57600080fd5b9091929391929390803590602001906401000000008111156101ae57600080fd5b8201836020820111156101c057600080fd5b803590602001918460018302840111640100000000831117156101e257600080fd5b90919293919293908035906020019092919050505061089f565b005b34801561020a57600080fd5b50610213610dc6565b6040518082600360200280838360005b8381101561023e578082015181840152602081019050610223565b5050505090500191505060405180910390f35b34801561025d57600080fd5b50610266610f39565b6040518082815260200191505060405180910390f35b34801561028857600080fd5b506103206004803603604081101561029f57600080fd5b81019080803590602001906401000000008111156102bc57600080fd5b8201836020820111156102ce57600080fd5b803590602001918460018302840111640100000000831117156102f057600080fd5b9091929391929390803573ffffffffffffffffffffffffffffffffffffffff169060200190929190505050610f45565b604051808260ff1660ff16815260200191505060405180910390f35b34801561034857600080fd5b50610404600480360360a081101561035f57600080fd5b81019080803560ff169060200190929190803573ffffffffffffffffffffffffffffffffffffffff169060200190929190803590602001906401000000008111156103a957600080fd5b8201836020820111156103bb57600080fd5b803590602001918460018302840111640100000000831117156103dd57600080fd5b909192939192939080359060200190929190803560ff169060200190929190505050610feb565b005b34801561041257600080fd5b5061041b611537565b604051808781526020018681526020018581526020018481526020018373ffffffffffffffffffffffffffffffffffffffff1673ffffffffffffffffffffffffffffffffffffffff1681526020018273ffffffffffffffffffffffffffffffffffffffff1673ffffffffffffffffffffffffffffffffffffffff168152602001965050505050505060405180910390f35b3480156104b857600080fd5b506104c1611790565b604051808215151515815260200191505060405180910390f35b3480156104e757600080fd5b506105c1600480360360408110156104fe57600080fd5b81019080803573ffffffffffffffffffffffffffffffffffffffff1690602001909291908035906020019064010000000081111561053b57600080fd5b82018360208201111561054d57600080fd5b8035906020019184600183028401116401000000008311171561056f57600080fd5b91908080601f016020809104026020016040519081016040528093929190818152602001838380828437600081840152601f19601f820116905080830192505050505050509192919290505050611855565b005b3480156105cf57600080fd5b50610671600480360360608110156105e657600080fd5b81019080803573ffffffffffffffffffffffffffffffffffffffff1690602001909291908035906020019064010000000081111561062357600080fd5b82018360208201111561063557600080fd5b8035906020019184600183028401116401000000008311171561065757600080fd5b909192939192939080359060200190929190505050611df4565b005b600160009054906101000a900473ffffffffffffffffffffffffffffffffffffffff1673ffffffffffffffffffffffffffffffffffffffff163373ffffffffffffffffffffffffffffffffffffffff1614610736576040517f08c379a000000000000000000000000000000000000000000000000000000000815260040180806020018281038252601c8152602001807f43616c6c6572206973206e6f7420636f6e7472616374206f776e65720000000081525060200191505060405180910390fd5b806000806101000a81548173ffffffffffffffffffffffffffffffffffffffff021916908373ffffffffffffffffffffffffffffffffffffffff16021790555050565b670de0b6b3a76400003410156107f7576040517f08c379a000000000000000000000000000000000000000000000000000000000815260040180806020018281038252601c8152602001807f526567697374726174696f6e206665652069732072657175697265640000000081525060200191505060405180910390fd5b6107ff6127f6565b61080833612123565b9050604051806040016040528060011515815260200182815250600560003373ffffffffffffffffffffffffffffffffffffffff1673ffffffffffffffffffffffffffffffffffffffff16815260200190815260200160002060008201518160000160006101000a81548160ff021916908315150217905550602082015181600101906003610898929190612818565b5090505050565b6000809054906101000a900473ffffffffffffffffffffffffffffffffffffffff1673ffffffffffffffffffffffffffffffffffffffff1663cd905dff6040518163ffffffff167c010000000000000000000000000000000000000000000000000000000002815260040160206040518083038186803b15801561092257600080fd5b505afa158015610936573d6000803e3d6000fd5b505050506040513d602081101561094c57600080fd5b81019080805190602001909291905050506109b2576040517f08c379a00000000000000000000000000000000000000000000000000000000081526004018080602001828103825260258152602001806129e26025913960400191505060405180910390fd5b6000809054906101000a900473ffffffffffffffffffffffffffffffffffffffff1673ffffffffffffffffffffffffffffffffffffffff16639f8a13d7336040518263ffffffff167c0100000000000000000000000000000000000000000000000000000000028152600401808273ffffffffffffffffffffffffffffffffffffffff1673ffffffffffffffffffffffffffffffffffffffff16815260200191505060206040518083038186803b158015610a6c57600080fd5b505afa158015610a80573d6000803e3d6000fd5b505050506040513d6020811015610a9657600080fd5b8101908080519060200190929190505050610afc576040517f08c379a0000000000000000000000000000000000000000000000000000000008152600401808060200182810382526065815260200180612a076065913960800191505060405180910390fd5b600085853360405160200180848480828437808301925050508273ffffffffffffffffffffffffffffffffffffffff1673ffffffffffffffffffffffffffffffffffffffff166c0100000000000000000000000002815260140193505050506040516020818303038152906040528051906020012090506002600082815260200190815260200160002060000160009054906101000a900460ff1615610c0a576040517f08c379a000000000000000000000000000000000000000000000000000000000815260040180806020018281038252601d8152602001807f466c6967687420697320616c726561647920726567697374657265642e00000081525060200191505060405180910390fd5b6040518060c0016040528060011515815260200187878080601f016020809104026020016040519081016040528093929190818152602001838380828437600081840152601f19601f82011690508083019250505050505050815260200185858080601f016020809104026020016040519081016040528093929190818152602001838380828437600081840152601f19601f820116905080830192505050505050508152602001600060ff1681526020018381526020013373ffffffffffffffffffffffffffffffffffffffff168152506002600083815260200190815260200160002060008201518160000160006101000a81548160ff0219169083151502179055506020820151816001019080519060200190610d2b9291906128b2565b506040820151816002019080519060200190610d489291906128b2565b5060608201518160030160006101000a81548160ff021916908360ff1602179055506080820151816004015560a08201518160050160006101000a81548173ffffffffffffffffffffffffffffffffffffffff021916908373ffffffffffffffffffffffffffffffffffffffff160217905550905050505050505050565b610dce6127f6565b600560003373ffffffffffffffffffffffffffffffffffffffff1673ffffffffffffffffffffffffffffffffffffffff16815260200190815260200160002060000160009054906101000a900460ff16610e90576040517f08c379a000000000000000000000000000000000000000000000000000000000815260040180806020018281038252601b8152602001807f4e6f74207265676973746572656420617320616e206f7261636c65000000000081525060200191505060405180910390fd5b600560003373ffffffffffffffffffffffffffffffffffffffff1673ffffffffffffffffffffffffffffffffffffffff168152602001908152602001600020600101600380602002604051908101604052809291908260038015610f2f576020028201916000905b82829054906101000a900460ff1660ff1681526020019060010190602082600001049283019260010382029150808411610ef85790505b5050505050905090565b670de0b6b3a764000081565b60008084848460405160200180848480828437808301925050508273ffffffffffffffffffffffffffffffffffffffff1673ffffffffffffffffffffffffffffffffffffffff166c0100000000000000000000000002815260140193505050506040516020818303038152906040528051906020012090506002600082815260200190815260200160002060030160009054906101000a900460ff169150509392505050565b8560ff16600560003373ffffffffffffffffffffffffffffffffffffffff1673ffffffffffffffffffffffffffffffffffffffff16815260200190815260200160002060010160006003811061103d57fe5b602091828204019190069054906101000a900460ff1660ff1614806110ca57508560ff16600560003373ffffffffffffffffffffffffffffffffffffffff1673ffffffffffffffffffffffffffffffffffffffff1681526020019081526020016000206001016001600381106110af57fe5b602091828204019190069054906101000a900460ff1660ff16145b8061113d57508560ff16600560003373ffffffffffffffffffffffffffffffffffffffff1673ffffffffffffffffffffffffffffffffffffffff16815260200190815260200160002060010160026003811061112257fe5b602091828204019190069054906101000a900460ff1660ff16145b611192576040517f08c379a0000000000000000000000000000000000000000000000000000000008152600401808060200182810382526023815260200180612a6c6023913960400191505060405180910390fd5b60008686868686604051602001808660ff1660ff167f01000000000000000000000000000000000000000000000000000000000000000281526001018573ffffffffffffffffffffffffffffffffffffffff1673ffffffffffffffffffffffffffffffffffffffff166c0100000000000000000000000002815260140184848082843780830192505050828152602001955050505050506040516020818303038152906040528051906020012090506006600082815260200190815260200160002060000160149054906101000a900460ff166112ba576040517f08c379a000000000000000000000000000000000000000000000000000000000815260040180806020018281038252602f815260200180612988602f913960400191505060405180910390fd5b6006600082815260200190815260200160002060010160008360ff1660ff1681526020019081526020016000203390806001815401808255809150509060018203906000526020600020016000909192909190916101000a81548173ffffffffffffffffffffffffffffffffffffffff021916908373ffffffffffffffffffffffffffffffffffffffff160217905550507f43c853095c2752648493c88b4baac4d580d2594ffb00c6f1d4242d844514f7838686868686604051808673ffffffffffffffffffffffffffffffffffffffff1673ffffffffffffffffffffffffffffffffffffffff168152602001806020018481526020018360ff1660ff1681526020018281038252868682818152602001925080828437600081840152601f19601f820116905080830192505050965050505050505060405180910390a160036006600083815260200190815260200160002060010160008460ff1660ff168152602001908152602001600020805490501061152e577fe23f5229de535c091e3b7bec2665f5d698192d3b31393066e8987b7a05076b6c8686868686604051808673ffffffffffffffffffffffffffffffffffffffff1673ffffffffffffffffffffffffffffffffffffffff168152602001806020018481526020018360ff1660ff1681526020018281038252868682818152602001925080828437600081840152601f19601f820116905080830192505050965050505050505060405180910390a161152d8686868080601f016020809104026020016040519081016040528093929190818152602001838380828437600081840152601f19601f8201169050808301925050505050505085856122af565b5b50505050505050565b6000806000806000806000809054906101000a900473ffffffffffffffffffffffffffffffffffffffff1673ffffffffffffffffffffffffffffffffffffffff1663cd905dff6040518163ffffffff167c010000000000000000000000000000000000000000000000000000000002815260040160206040518083038186803b1580156115c357600080fd5b505afa1580156115d7573d6000803e3d6000fd5b505050506040513d60208110156115ed57600080fd5b8101908080519060200190929190505050611653576040517f08c379a00000000000000000000000000000000000000000000000000000000081526004018080602001828103825260258152602001806129e26025913960400191505060405180910390fd5b6000809054906101000a900473ffffffffffffffffffffffffffffffffffffffff1673ffffffffffffffffffffffffffffffffffffffff166351cff8d9336040518263ffffffff167c0100000000000000000000000000000000000000000000000000000000028152600401808273ffffffffffffffffffffffffffffffffffffffff1673ffffffffffffffffffffffffffffffffffffffff16815260200191505060c060405180830381600087803b15801561170f57600080fd5b505af1158015611723573d6000803e3d6000fd5b505050506040513d60c081101561173957600080fd5b81019080805190602001909291908051906020019092919080519060200190929190805190602001909291908051906020019092919080519060200190929190505050955095509550955095509550909192939495565b60008060009054906101000a900473ffffffffffffffffffffffffffffffffffffffff1673ffffffffffffffffffffffffffffffffffffffff1663cd905dff6040518163ffffffff167c010000000000000000000000000000000000000000000000000000000002815260040160206040518083038186803b15801561181557600080fd5b505afa158015611829573d6000803e3d6000fd5b505050506040513d602081101561183f57600080fd5b8101908080519060200190929190505050905090565b6000809054906101000a900473ffffffffffffffffffffffffffffffffffffffff1673ffffffffffffffffffffffffffffffffffffffff1663cd905dff6040518163ffffffff167c010000000000000000000000000000000000000000000000000000000002815260040160206040518083038186803b1580156118d857600080fd5b505afa1580156118ec573d6000803e3d6000fd5b505050506040513d602081101561190257600080fd5b8101908080519060200190929190505050611968576040517f08c379a00000000000000000000000000000000000000000000000000000000081526004018080602001828103825260258152602001806129e26025913960400191505060405180910390fd5b6000809054906101000a900473ffffffffffffffffffffffffffffffffffffffff1673ffffffffffffffffffffffffffffffffffffffff16639f8a13d7336040518263ffffffff167c0100000000000000000000000000000000000000000000000000000000028152600401808273ffffffffffffffffffffffffffffffffffffffff1673ffffffffffffffffffffffffffffffffffffffff16815260200191505060206040518083038186803b158015611a2257600080fd5b505afa158015611a36573d6000803e3d6000fd5b505050506040513d6020811015611a4c57600080fd5b8101908080519060200190929190505050611ab2576040517f08c379a0000000000000000000000000000000000000000000000000000000008152600401808060200182810382526065815260200180612a076065913960800191505060405180910390fd5b81611b7f600360008373ffffffffffffffffffffffffffffffffffffffff1673ffffffffffffffffffffffffffffffffffffffff168152602001908152602001600020805480602002602001604051908101604052809291908181526020018280548015611b7557602002820191906000526020600020905b8160009054906101000a900473ffffffffffffffffffffffffffffffffffffffff1673ffffffffffffffffffffffffffffffffffffffff1681526020019060010190808311611b2b575b505050505061267f565b15611bd5576040517f08c379a000000000000000000000000000000000000000000000000000000000815260040180806020018281038252602b8152602001806129b7602b913960400191505060405180910390fd5b60008060009054906101000a900473ffffffffffffffffffffffffffffffffffffffff1673ffffffffffffffffffffffffffffffffffffffff1663ee38a74985856040518363ffffffff167c0100000000000000000000000000000000000000000000000000000000028152600401808373ffffffffffffffffffffffffffffffffffffffff1673ffffffffffffffffffffffffffffffffffffffff16815260200180602001828103825283818151815260200191508051906020019080838360005b83811015611cb3578082015181840152602081019050611c98565b50505050905090810190601f168015611ce05780820380516001836020036101000a031916815260200191505b509350505050602060405180830381600087803b158015611d0057600080fd5b505af1158015611d14573d6000803e3d6000fd5b505050506040513d6020811015611d2a57600080fd5b81019080805190602001909291905050509050600115158115151415611dee57600360008573ffffffffffffffffffffffffffffffffffffffff1673ffffffffffffffffffffffffffffffffffffffff1681526020019081526020016000203390806001815401808255809150509060018203906000526020600020016000909192909190916101000a81548173ffffffffffffffffffffffffffffffffffffffff021916908373ffffffffffffffffffffffffffffffffffffffff160217905550505b50505050565b6000809054906101000a900473ffffffffffffffffffffffffffffffffffffffff1673ffffffffffffffffffffffffffffffffffffffff1663cd905dff6040518163ffffffff167c010000000000000000000000000000000000000000000000000000000002815260040160206040518083038186803b158015611e7757600080fd5b505afa158015611e8b573d6000803e3d6000fd5b505050506040513d6020811015611ea157600080fd5b8101908080519060200190929190505050611f07576040517f08c379a00000000000000000000000000000000000000000000000000000000081526004018080602001828103825260258152602001806129e26025913960400191505060405180910390fd5b6000611f12336126f9565b905060008186868686604051602001808660ff1660ff167f01000000000000000000000000000000000000000000000000000000000000000281526001018573ffffffffffffffffffffffffffffffffffffffff1673ffffffffffffffffffffffffffffffffffffffff166c01000000000000000000000000028152601401848480828437808301925050508281526020019550505050505060405160208183030381529060405280519060200120905060405180604001604052803373ffffffffffffffffffffffffffffffffffffffff168152602001600115158152506006600083815260200190815260200160002060008201518160000160006101000a81548173ffffffffffffffffffffffffffffffffffffffff021916908373ffffffffffffffffffffffffffffffffffffffff16021790555060208201518160000160146101000a81548160ff0219169083151502179055509050507f3ed01f2c3fc24c6b329d931e35b03e390d23497d22b3f90e15b600343e93df118287878787604051808660ff1660ff1681526020018573ffffffffffffffffffffffffffffffffffffffff1673ffffffffffffffffffffffffffffffffffffffff168152602001806020018381526020018281038252858582818152602001925080828437600081840152601f19601f820116905080830192505050965050505050505060405180910390a1505050505050565b61212b6127f6565b6121336127f6565b61213c836126f9565b8160006003811061214957fe5b602002019060ff16908160ff16815250508060006003811061216757fe5b60200201518160016003811061217957fe5b602002019060ff16908160ff16815250505b8060006003811061219857fe5b602002015160ff16816001600381106121ad57fe5b602002015160ff1614156121e7576121c4836126f9565b816001600381106121d157fe5b602002019060ff16908160ff168152505061218b565b806001600381106121f457fe5b60200201518160026003811061220657fe5b602002019060ff16908160ff16815250505b8060006003811061222557fe5b602002015160ff168160026003811061223a57fe5b602002015160ff16148061227557508060016003811061225657fe5b602002015160ff168160026003811061226b57fe5b602002015160ff16145b156122a657612283836126f9565b8160026003811061229057fe5b602002019060ff16908160ff1681525050612218565b80915050919050565b6000809054906101000a900473ffffffffffffffffffffffffffffffffffffffff1673ffffffffffffffffffffffffffffffffffffffff1663cd905dff6040518163ffffffff167c010000000000000000000000000000000000000000000000000000000002815260040160206040518083038186803b15801561233257600080fd5b505afa158015612346573d6000803e3d6000fd5b505050506040513d602081101561235c57600080fd5b81019080805190602001909291905050506123c2576040517f08c379a00000000000000000000000000000000000000000000000000000000081526004018080602001828103825260258152602001806129e26025913960400191505060405180910390fd5b600083856040516020018083805190602001908083835b602083106123fc57805182526020820191506020810190506020830392506123d9565b6001836020036101000a0380198251168184511680821785525050505050509050018273ffffffffffffffffffffffffffffffffffffffff1673ffffffffffffffffffffffffffffffffffffffff166c01000000000000000000000000028152601401925050506040516020818303038152906040528051906020012090506002600082815260200190815260200160002060000160009054906101000a900460ff16612511576040517f08c379a00000000000000000000000000000000000000000000000000000000081526004018080602001828103825260198152602001807f466c69676874206973206e6f7420726567697374657265642e0000000000000081525060200191505060405180910390fd5b826002600083815260200190815260200160002060040181905550816002600083815260200190815260200160002060030160006101000a81548160ff021916908360ff160217905550601460ff168260ff161415612678576000809054906101000a900473ffffffffffffffffffffffffffffffffffffffff1673ffffffffffffffffffffffffffffffffffffffff16633fcf1cf4856040518263ffffffff167c01000000000000000000000000000000000000000000000000000000000281526004018080602001828103825283818151815260200191508051906020019080838360005b838110156126135780820151818401526020810190506125f8565b50505050905090810190601f1680156126405780820380516001836020036101000a031916815260200191505b5092505050600060405180830381600087803b15801561265f57600080fd5b505af1158015612673573d6000803e3d6000fd5b505050505b5050505050565b600080905060008090505b82518110156126f0573373ffffffffffffffffffffffffffffffffffffffff168382815181106126b657fe5b602002602001015173ffffffffffffffffffffffffffffffffffffffff1614156126e357600191506126f0565b808060010191505061268a565b50809050919050565b600080600a905060008160ff166004600081819054906101000a900460ff168092919060010191906101000a81548160ff021916908360ff16021790555060ff1643034085604051602001808381526020018273ffffffffffffffffffffffffffffffffffffffff1673ffffffffffffffffffffffffffffffffffffffff166c01000000000000000000000000028152601401925050506040516020818303038152906040528051906020012060019004816127b157fe5b06905060fa600460009054906101000a900460ff1660ff1611156127ec576000600460006101000a81548160ff021916908360ff1602179055505b8092505050919050565b6040518060600160405280600390602082028038833980820191505090505090565b826003601f016020900481019282156128a15791602002820160005b8382111561287257835183826101000a81548160ff021916908360ff1602179055509260200192600101602081600001049283019260010302612834565b801561289f5782816101000a81549060ff0219169055600101602081600001049283019260010302612872565b505b5090506128ae9190612932565b5090565b828054600181600116156101000203166002900490600052602060002090601f016020900481019282601f106128f357805160ff1916838001178555612921565b82800160010185558215612921579182015b82811115612920578251825591602001919060010190612905565b5b50905061292e9190612962565b5090565b61295f91905b8082111561295b57600081816101000a81549060ff021916905550600101612938565b5090565b90565b61298491905b80821115612980576000816000905550600101612968565b5090565b9056fe466c69676874206f722074696d657374616d7020646f206e6f74206d61746368206f7261636c652072657175657374596f7520616c726561647920766f74656420746f2072656769737465722074686973206169726c696e652e436f6e74726163742069732063757272656e746c79206e6f74206f7065726174696f6e616c54686973206163636f756e7420646964206e6f742070726f7669646520656e6f7567682066756e64696e672c207468657265666f7265206973206e6f742061637469766520666f72206169726c696e65206f7065726174696f6e616c20616374696f6e732e496e64657820646f6573206e6f74206d61746368206f7261636c652072657175657374a265627a7a72315820078ea070401ba5f422cb081321b7e2e39f3961ff8735d9188cb5c51c49ae90e464736f6c63430005110032",
  "source": "pragma solidity >=0.4.25;\n\n// It's important to avoid vulnerabilities due to numeric overflow bugs\n// OpenZeppelin's SafeMath library, when used correctly, protects agains such bugs\n// More info: https://www.nccgroup.trust/us/about-us/newsroom-and-events/blog/2018/november/smart-contract-insecurity-bad-arithmetic/\n\nimport \"../node_modules/openzeppelin-solidity/contracts/math/SafeMath.sol\";\n\n/************************************************** */\n/* FlightSurety Smart Contract                      */\n/************************************************** */\ncontract FlightSuretyApp {\n    using SafeMath for uint256; // Allow SafeMath functions to be called for all uint256 types (similar to \"prototype\" in Javascript)\n\n    /********************************************************************************************/\n    /*                                       DATA VARIABLES                                     */\n    /********************************************************************************************/\n\n    FlightSuretyData flightSuretyData;\n    // Flight status codees\n    uint8 private constant STATUS_CODE_UNKNOWN = 0;\n    uint8 private constant STATUS_CODE_ON_TIME = 10;\n    uint8 private constant STATUS_CODE_LATE_AIRLINE = 20;\n    uint8 private constant STATUS_CODE_LATE_WEATHER = 30;\n    uint8 private constant STATUS_CODE_LATE_TECHNICAL = 40;\n    uint8 private constant STATUS_CODE_LATE_OTHER = 50;\n\n    address private contractOwner;          // Account used to deploy contract\n\n    // flights data\n    struct Flight {\n        bool isRegistered;\n        string flightCode;\n        string destination;\n        uint8 statusCode;\n        uint256 updatedTimestamp;\n        address airline;\n    }\n    mapping(bytes32 => Flight) private flights;\n    mapping(address => address[]) private airlineVoters;\n\n\n    /********************************************************************************************/\n    /*                                       FUNCTION MODIFIERS                                 */\n    /********************************************************************************************/\n\n    // Modifiers help avoid duplication of code. They are typically used to validate something\n    // before a function is allowed to be executed.\n\n    /**\n    * @dev Modifier that requires the \"operational\" boolean variable to be \"true\"\n    *      This is used on all state changing functions to pause the contract in\n    *      the event there is an issue that needs to be fixed\n    */\n    modifier requireIsOperational()\n    {\n         // Modify to call data contract's status\n        require(flightSuretyData.isOperational(), \"Contract is currently not operational\");\n        _;  // All modifiers require an \"_\" which indicates where the function body will be added\n    }\n\n    /**\n    * @dev Modifier that requires the \"ContractOwner\" account to be the function caller\n    */\n    modifier requireContractOwner()\n    {\n        require(msg.sender == contractOwner, \"Caller is not contract owner\");\n        _;\n    }\n\n    /********************************************************************************************/\n    /*                                       CONSTRUCTOR                                        */\n    /********************************************************************************************/\n\n    /**\n    * @dev Contract constructor\n    *\n    */\n    constructor\n                                (\n                                    address dataContract\n                                )\n                                public\n    {\n        contractOwner = msg.sender;\n        flightSuretyData = FlightSuretyData(dataContract);\n    }\n\n    /****************************************************************************************** */\n    /*                                       FUNCTION MODIFIERS                                 */\n    /********************************************************************************************/\n    /**\n    * @dev Modifier that requires the current account to have funded at least 10 eth\n    */\n    modifier requireIsAirlineActive()\n    {\n        require(flightSuretyData.isActive(msg.sender), \"This account did not provide enough funding, therefore is not active for airline operational actions.\");\n        _;\n    }\n\n    modifier requireAirlineNotVoted(address airlineAddress) {\n        require(!checkIfContains(airlineVoters[airlineAddress]), \"You already voted to register this airline.\");\n        _;\n    }\n\n    /********************************************************************************************/\n    /*                                       UTILITY FUNCTIONS                                  */\n    /********************************************************************************************/\n\n    function isOperational()\n                            public\n                            view\n                            returns(bool)\n    {\n        return flightSuretyData.isOperational();\n    }\n\n    function setDataContract\n                            (\n                                address dataContract\n                            )\n                            external\n                            requireContractOwner\n    {\n        flightSuretyData = FlightSuretyData(dataContract);\n    }\n\n    /********************************************************************************************/\n    /*                                     SMART CONTRACT FUNCTIONS                             */\n    /********************************************************************************************/\n\n\n   /**\n    * @dev Add an airline to the registration queue\n    *\n    */\n    function registerAirline\n                            (\n                                address airlineAddress,\n                                string memory name\n                            )\n                            public\n                            requireIsOperational\n                            requireIsAirlineActive\n                            requireAirlineNotVoted(airlineAddress)\n    {\n        bool result = flightSuretyData.registerAirline(airlineAddress, name);\n        if (result == true) {\n            airlineVoters[airlineAddress].push(msg.sender);\n        }\n    }\n\n    function checkIfContains(address[] memory voters) internal view returns(bool alreadyVoted){\n        alreadyVoted = false;\n        for (uint256 c = 0; c < voters.length; c++) {\n            if (voters[c] == msg.sender) {\n                alreadyVoted = true;\n                break;\n            }\n        }\n        return alreadyVoted;\n    }\n\n   /**\n    * @dev Register a future flight for insuring.\n    *\n    */\n    function registerFlight\n                                (\n                                    string calldata flight,\n                                    string calldata destination,\n                                    uint256 timestamp\n                                )\n                                external\n                                requireIsOperational\n                                requireIsAirlineActive\n    {\n        bytes32 key = keccak256(abi.encodePacked(flight, msg.sender));\n        require(!flights[key].isRegistered, \"Flight is already registered.\");\n\n        flights[key] = Flight({\n                                        isRegistered: true,\n                                        flightCode: flight,\n                                        destination: destination,\n                                        statusCode: STATUS_CODE_UNKNOWN,\n                                        updatedTimestamp: timestamp,\n                                        airline: msg.sender\n                                });\n\n    }\n\n   /**\n    * @dev Called after oracle has updated flight status\n    *\n    */\n    function processFlightStatus\n                                (\n                                    address airline,\n                                    string memory flight,\n                                    uint256 timestamp,\n                                    uint8 statusCode\n                                )\n                                internal\n                                requireIsOperational\n    {\n        bytes32 keyVal = keccak256(abi.encodePacked(flight, airline));\n        require(flights[keyVal].isRegistered, \"Flight is not registered.\");\n\n        flights[keyVal].updatedTimestamp = timestamp;\n        flights[keyVal].statusCode = statusCode;\n\n        if (statusCode == STATUS_CODE_LATE_AIRLINE) {\n            flightSuretyData.creditInsurees(flight);\n        }\n    }\n\n\n    // Generate a request for oracles to fetch flight information\n    function fetchFlightStatus\n                        (\n                            address airline,\n                            string calldata flight,\n                            uint256 timestamp\n                        )\n                        external\n                        requireIsOperational\n    {\n        uint8 index = getRandomIndex(msg.sender);\n\n        // Generate a unique key for storing the request\n        bytes32 key = keccak256(abi.encodePacked(index, airline, flight, timestamp));\n        oracleResponses[key] = ResponseInfo({\n                                                requester: msg.sender,\n                                                isOpen: true\n                                            });\n\n        emit OracleRequest(index, airline, flight, timestamp);\n    }\n\n    // Query the status of any flight\n    function viewFlightStatus\n                            (\n                                string calldata flight,\n                                address airline\n                            )\n                            external\n                            view\n                            returns(uint8)\n    {\n            bytes32 keyVal = keccak256(abi.encodePacked(flight, airline));\n            return flights[keyVal].statusCode;\n    }\n\n    function withdrawCredit ()\n                            public\n                            requireIsOperational\n                            returns (uint256, uint256, uint256, uint256, address, address)\n    {\n        return (flightSuretyData.withdraw(msg.sender));\n    }\n\n// region ORACLE MANAGEMENT\n\n    // Incremented to add pseudo-randomness at various points\n    uint8 private nonce = 0;\n\n    // Fee to be paid when registering oracle\n    uint256 public constant REGISTRATION_FEE = 1 ether;\n\n    // Number of oracles that must respond for valid status\n    uint256 private constant MIN_RESPONSES = 3;\n\n\n    struct Oracle {\n        bool isRegistered;\n        uint8[3] indexes;\n    }\n\n    // Track all registered oracles\n    mapping(address => Oracle) private oracles;\n\n    // Model for responses from oracles\n    struct ResponseInfo {\n        address requester;                              // Account that requested status\n        bool isOpen;                                    // If open, oracle responses are accepted\n        mapping(uint8 => address[]) responses;          // Mapping key is the status code reported\n                                                        // This lets us group responses and identify\n                                                        // the response that majority of the oracles\n    }\n\n    // Track all oracle responses\n    // Key = hash(index, flight, timestamp)\n    mapping(bytes32 => ResponseInfo) private oracleResponses;\n\n    // Event fired each time an oracle submits a response\n    event FlightStatusInfo(address airline, string flight, uint256 timestamp, uint8 status);\n\n    event OracleReport(address airline, string flight, uint256 timestamp, uint8 status);\n\n    // Event fired when flight status request is submitted\n    // Oracles track this and if they have a matching index\n    // they fetch data and submit a response\n    event OracleRequest(uint8 index, address airline, string flight, uint256 timestamp);\n\n\n    // Register an oracle with the contract\n    function registerOracle\n                            (\n                            )\n                            external\n                            payable\n    {\n        // Require registration fee\n        require(msg.value >= REGISTRATION_FEE, \"Registration fee is required\");\n\n        uint8[3] memory indexes = generateIndexes(msg.sender);\n\n        oracles[msg.sender] = Oracle({\n                                        isRegistered: true,\n                                        indexes: indexes\n                                    });\n    }\n\n    function getMyIndexes\n                            (\n                            )\n                            external\n                            view\n                            returns(uint8[3] memory)\n    {\n        require(oracles[msg.sender].isRegistered, \"Not registered as an oracle\");\n\n        return oracles[msg.sender].indexes;\n    }\n\n\n\n\n    // Called by oracle when a response is available to an outstanding request\n    // For the response to be accepted, there must be a pending request that is open\n    // and matches one of the three Indexes randomly assigned to the oracle at the\n    // time of registration (i.e. uninvited oracles are not welcome)\n    function submitOracleResponse\n                        (\n                            uint8 index,\n                            address airline,\n                            string calldata flight,\n                            uint256 timestamp,\n                            uint8 statusCode\n                        )\n                        external\n    {\n        require((oracles[msg.sender].indexes[0] == index) || (oracles[msg.sender].indexes[1] == index) || (oracles[msg.sender].indexes[2] == index), \"Index does not match oracle request\");\n\n\n        bytes32 key = keccak256(abi.encodePacked(index, airline, flight, timestamp));\n        require(oracleResponses[key].isOpen, \"Flight or timestamp do not match oracle request\");\n\n        oracleResponses[key].responses[statusCode].push(msg.sender);\n\n        // Information isn't considered verified until at least MIN_RESPONSES\n        // oracles respond with the *** same *** information\n        emit OracleReport(airline, flight, timestamp, statusCode);\n        if (oracleResponses[key].responses[statusCode].length >= MIN_RESPONSES) {\n\n            emit FlightStatusInfo(airline, flight, timestamp, statusCode);\n\n            // Handle flight status as appropriate\n            processFlightStatus(airline, flight, timestamp, statusCode);\n        }\n    }\n\n\n    function getFlightKey\n                        (\n                            address airline,\n                            string memory flight,\n                            uint256 timestamp\n                        )\n                        internal\n                        pure\n                        returns(bytes32)\n    {\n        return keccak256(abi.encodePacked(airline, flight, timestamp));\n    }\n\n    // Returns array of three non-duplicating integers from 0-9\n    function generateIndexes\n                            (\n                                address account\n                            )\n                            internal\n                            returns(uint8[3] memory)\n    {\n        uint8[3] memory indexes;\n        indexes[0] = getRandomIndex(account);\n\n        indexes[1] = indexes[0];\n        while(indexes[1] == indexes[0]) {\n            indexes[1] = getRandomIndex(account);\n        }\n\n        indexes[2] = indexes[1];\n        while((indexes[2] == indexes[0]) || (indexes[2] == indexes[1])) {\n            indexes[2] = getRandomIndex(account);\n        }\n\n        return indexes;\n    }\n\n    // Returns array of three non-duplicating integers from 0-9\n    function getRandomIndex\n                            (\n                                address account\n                            )\n                            internal\n                            returns (uint8)\n    {\n        uint8 maxValue = 10;\n\n        // Pseudo random number...the incrementing nonce adds variation\n        uint8 random = uint8(uint256(keccak256(abi.encodePacked(blockhash(block.number - nonce++), account))) % maxValue);\n\n        if (nonce > 250) {\n            nonce = 0;  // Can only fetch blockhashes for last 256 blocks so we adapt\n        }\n\n        return random;\n    }\n\n// endregion\n\n}\n\ncontract FlightSuretyData {\n    function isOperational() public view returns(bool);\n    function isActive ( address airline) public view returns(bool);\n    function registerAirline(address airlineAddress, string calldata name) external returns(bool);\n    function getAirlineVotes(address airline) public view returns (uint256 votes);\n    function creditInsurees (string calldata flightCode) external;\n    function withdraw (address payable insuredPassenger) public returns (uint256, uint256, uint256, uint256, address, address);\n    // function fund() public payable;\n}\n",
  "sourcePath": "/home/hep-cbe-295/Downloads/ud-benattxurruka/FlightSurety-master/contracts/FlightSuretyApp.sol",
  "compiler": {
    "name": "solc",
    "version": "0.5.17+commit.d19bba13.Emscripten.clang"
  },
  "schemaVersion": "3.0.1",
  "updatedAt": "2022-02-12T19:51:48.755Z",
  "devdoc": {
    "methods": {
      "constructor": {
        "details": "Contract constructor    "
      },
      "registerAirline(address,string)": {
        "details": "Add an airline to the registration queue    "
      },
      "registerFlight(string,string,uint256)": {
        "details": "Register a future flight for insuring.    "
      }
    }
  },
  "userdoc": {
    "methods": {
      "isOperational()": {
        "notice": "*****************************************************************************************"
      }
    },
    "notice": "************************************************ "
  }
}