{
  "contractName": "FlightSuretyData",
  "abi": [
    {
      "inputs": [],
      "payable": false,
      "stateMutability": "nonpayable",
      "type": "constructor",
      "signature": "constructor"
    },
    {
      "payable": true,
      "stateMutability": "payable",
      "type": "fallback"
    },
    {
      "constant": true,
      "inputs": [],
      "name": "INSURANCE_PRICE_LIMIT",
      "outputs": [
        {
          "internalType": "uint256",
          "name": "",
          "type": "uint256"
        }
      ],
      "payable": false,
      "stateMutability": "view",
      "type": "function",
      "signature": "0x29e18e5d"
    },
    {
      "constant": true,
      "inputs": [],
      "name": "MINIMUM_FUNDS",
      "outputs": [
        {
          "internalType": "uint256",
          "name": "",
          "type": "uint256"
        }
      ],
      "payable": false,
      "stateMutability": "view",
      "type": "function",
      "signature": "0x7001ce88"
    },
    {
      "constant": true,
      "inputs": [],
      "name": "airlinesCount",
      "outputs": [
        {
          "internalType": "uint256",
          "name": "",
          "type": "uint256"
        }
      ],
      "payable": false,
      "stateMutability": "view",
      "type": "function",
      "signature": "0x954a7df6"
    },
    {
      "constant": true,
      "inputs": [
        {
          "internalType": "uint256",
          "name": "",
          "type": "uint256"
        }
      ],
      "name": "passengerAddresses",
      "outputs": [
        {
          "internalType": "address",
          "name": "",
          "type": "address"
        }
      ],
      "payable": false,
      "stateMutability": "view",
      "type": "function",
      "signature": "0x536c8e83"
    },
    {
      "constant": true,
      "inputs": [],
      "name": "isOperational",
      "outputs": [
        {
          "internalType": "bool",
          "name": "",
          "type": "bool"
        }
      ],
      "payable": false,
      "stateMutability": "view",
      "type": "function",
      "signature": "0xcd905dff"
    },
    {
      "constant": false,
      "inputs": [
        {
          "internalType": "address",
          "name": "contractAddress",
          "type": "address"
        }
      ],
      "name": "authorizeCaller",
      "outputs": [],
      "payable": false,
      "stateMutability": "nonpayable",
      "type": "function",
      "signature": "0x2c388d5d"
    },
    {
      "constant": true,
      "inputs": [
        {
          "internalType": "address",
          "name": "contractAddress",
          "type": "address"
        }
      ],
      "name": "isAuthorized",
      "outputs": [
        {
          "internalType": "bool",
          "name": "",
          "type": "bool"
        }
      ],
      "payable": false,
      "stateMutability": "view",
      "type": "function",
      "signature": "0xfe9fbb80"
    },
    {
      "constant": false,
      "inputs": [
        {
          "internalType": "address",
          "name": "contractAddress",
          "type": "address"
        }
      ],
      "name": "deauthorizeCaller",
      "outputs": [],
      "payable": false,
      "stateMutability": "nonpayable",
      "type": "function",
      "signature": "0x6873c21d"
    },
    {
      "constant": false,
      "inputs": [
        {
          "internalType": "bool",
          "name": "mode",
          "type": "bool"
        }
      ],
      "name": "setOperatingStatus",
      "outputs": [],
      "payable": false,
      "stateMutability": "nonpayable",
      "type": "function",
      "signature": "0x110466ed"
    },
    {
      "constant": true,
      "inputs": [
        {
          "internalType": "address",
          "name": "airline",
          "type": "address"
        }
      ],
      "name": "isActive",
      "outputs": [
        {
          "internalType": "bool",
          "name": "",
          "type": "bool"
        }
      ],
      "payable": false,
      "stateMutability": "view",
      "type": "function",
      "signature": "0x9f8a13d7"
    },
    {
      "constant": true,
      "inputs": [
        {
          "internalType": "address",
          "name": "airline",
          "type": "address"
        }
      ],
      "name": "isRegistered",
      "outputs": [
        {
          "internalType": "bool",
          "name": "",
          "type": "bool"
        }
      ],
      "payable": false,
      "stateMutability": "view",
      "type": "function",
      "signature": "0xc3c5a547"
    },
    {
      "constant": false,
      "inputs": [
        {
          "internalType": "address",
          "name": "airlineAddress",
          "type": "address"
        },
        {
          "internalType": "string",
          "name": "name",
          "type": "string"
        }
      ],
      "name": "registerAirline",
      "outputs": [
        {
          "internalType": "bool",
          "name": "",
          "type": "bool"
        }
      ],
      "payable": false,
      "stateMutability": "nonpayable",
      "type": "function",
      "signature": "0xee38a749"
    },
    {
      "constant": true,
      "inputs": [
        {
          "internalType": "address",
          "name": "airline",
          "type": "address"
        }
      ],
      "name": "getAirlineVotes",
      "outputs": [
        {
          "internalType": "uint256",
          "name": "votes",
          "type": "uint256"
        }
      ],
      "payable": false,
      "stateMutability": "view",
      "type": "function",
      "signature": "0x6d47c815"
    },
    {
      "constant": false,
      "inputs": [
        {
          "internalType": "string",
          "name": "flightCode",
          "type": "string"
        }
      ],
      "name": "buy",
      "outputs": [
        {
          "internalType": "uint256",
          "name": "",
          "type": "uint256"
        },
        {
          "internalType": "address",
          "name": "",
          "type": "address"
        },
        {
          "internalType": "uint256",
          "name": "",
          "type": "uint256"
        }
      ],
      "payable": true,
      "stateMutability": "payable",
      "type": "function",
      "signature": "0x492cc769"
    },
    {
      "constant": false,
      "inputs": [
        {
          "internalType": "string",
          "name": "flightCode",
          "type": "string"
        }
      ],
      "name": "creditInsurees",
      "outputs": [],
      "payable": false,
      "stateMutability": "nonpayable",
      "type": "function",
      "signature": "0x3fcf1cf4"
    },
    {
      "constant": true,
      "inputs": [],
      "name": "getCreditToPay",
      "outputs": [
        {
          "internalType": "uint256",
          "name": "",
          "type": "uint256"
        }
      ],
      "payable": false,
      "stateMutability": "view",
      "type": "function",
      "signature": "0x9c3ffb59"
    },
    {
      "constant": false,
      "inputs": [
        {
          "internalType": "address payable",
          "name": "insuredPassenger",
          "type": "address"
        }
      ],
      "name": "withdraw",
      "outputs": [
        {
          "internalType": "uint256",
          "name": "",
          "type": "uint256"
        },
        {
          "internalType": "uint256",
          "name": "",
          "type": "uint256"
        },
        {
          "internalType": "uint256",
          "name": "",
          "type": "uint256"
        },
        {
          "internalType": "uint256",
          "name": "",
          "type": "uint256"
        },
        {
          "internalType": "address",
          "name": "",
          "type": "address"
        },
        {
          "internalType": "address",
          "name": "",
          "type": "address"
        }
      ],
      "payable": false,
      "stateMutability": "nonpayable",
      "type": "function",
      "signature": "0x51cff8d9"
    },
    {
      "constant": false,
      "inputs": [],
      "name": "fund",
      "outputs": [],
      "payable": true,
      "stateMutability": "payable",
      "type": "function",
      "signature": "0xb60d4288"
    },
    {
      "constant": true,
      "inputs": [
        {
          "internalType": "address",
          "name": "airline",
          "type": "address"
        }
      ],
      "name": "isAirline",
      "outputs": [
        {
          "internalType": "bool",
          "name": "",
          "type": "bool"
        }
      ],
      "payable": false,
      "stateMutability": "view",
      "type": "function",
      "signature": "0x0e248a11"
    }
  ],
  "bytecode": "0x60806040526001600060146101000a81548160ff0219169083151502179055503480156200002c57600080fd5b50336000806101000a81548173ffffffffffffffffffffffffffffffffffffffff021916908373ffffffffffffffffffffffffffffffffffffffff160217905550600060058190555060018060003373ffffffffffffffffffffffffffffffffffffffff1673ffffffffffffffffffffffffffffffffffffffff168152602001908152602001600020819055506000604051908082528060200260200182016040528015620000ea5781602001602082028038833980820191505090505b5060049080519060200190620001029291906200026e565b506040518060a001604052803373ffffffffffffffffffffffffffffffffffffffff1681526020016001151581526020016040518060400160405280601081526020017f44656661756c74204169726c696e6573000000000000000000000000000000008152508152602001600081526020016000815250600260003373ffffffffffffffffffffffffffffffffffffffff1673ffffffffffffffffffffffffffffffffffffffff16815260200190815260200160002060008201518160000160006101000a81548173ffffffffffffffffffffffffffffffffffffffff021916908373ffffffffffffffffffffffffffffffffffffffff16021790555060208201518160000160146101000a81548160ff02191690831515021790555060408201518160010190805190602001906200023e929190620002fd565b506060820151816002015560808201518160030155905050600560008154809291906001019190505550620003f2565b828054828255906000526020600020908101928215620002ea579160200282015b82811115620002e95782518260006101000a81548173ffffffffffffffffffffffffffffffffffffffff021916908373ffffffffffffffffffffffffffffffffffffffff160217905550916020019190600101906200028f565b5b509050620002f9919062000384565b5090565b828054600181600116156101000203166002900490600052602060002090601f016020900481019282601f106200034057805160ff191683800117855562000371565b8280016001018555821562000371579182015b828111156200037057825182559160200191906001019062000353565b5b509050620003809190620003ca565b5090565b620003c791905b80821115620003c357600081816101000a81549073ffffffffffffffffffffffffffffffffffffffff0219169055506001016200038b565b5090565b90565b620003ef91905b80821115620003eb576000816000905550600101620003d1565b5090565b90565b61238f80620004026000396000f3fe608060405260043610610131576000357c0100000000000000000000000000000000000000000000000000000000900480636d47c815116100bd578063b60d428811610081578063b60d4288146106a5578063c3c5a547146106af578063cd905dff14610718578063ee38a74914610747578063fe9fbb801461080557610131565b80636d47c815146105565780637001ce88146105bb578063954a7df6146105e65780639c3ffb59146106115780639f8a13d71461063c57610131565b80633fcf1cf4116101045780633fcf1cf41461025d578063492cc769146102e357806351cff8d9146103aa578063536c8e831461048a5780636873c21d1461050557610131565b80630e248a111461013b578063110466ed146101a457806329e18e5d146101e15780632c388d5d1461020c575b61013961086e565b005b34801561014757600080fd5b5061018a6004803603602081101561015e57600080fd5b81019080803573ffffffffffffffffffffffffffffffffffffffff169060200190929190505050610976565b604051808215151515815260200191505060405180910390f35b3480156101b057600080fd5b506101df600480360360208110156101c757600080fd5b81019080803515159060200190929190505050610a21565b005b3480156101ed57600080fd5b506101f6610b00565b6040518082815260200191505060405180910390f35b34801561021857600080fd5b5061025b6004803603602081101561022f57600080fd5b81019080803573ffffffffffffffffffffffffffffffffffffffff169060200190929190505050610b0c565b005b34801561026957600080fd5b506102e16004803603602081101561028057600080fd5b810190808035906020019064010000000081111561029d57600080fd5b8201836020820111156102af57600080fd5b803590602001918460018302840111640100000000831117156102d157600080fd5b9091929391929390505050610c15565b005b61035a600480360360208110156102f957600080fd5b810190808035906020019064010000000081111561031657600080fd5b82018360208201111561032857600080fd5b8035906020019184600183028401116401000000008311171561034a57600080fd5b9091929391929390505050610fa2565b604051808481526020018373ffffffffffffffffffffffffffffffffffffffff1673ffffffffffffffffffffffffffffffffffffffff168152602001828152602001935050505060405180910390f35b3480156103b657600080fd5b506103f9600480360360208110156103cd57600080fd5b81019080803573ffffffffffffffffffffffffffffffffffffffff169060200190929190505050611424565b604051808781526020018681526020018581526020018481526020018373ffffffffffffffffffffffffffffffffffffffff1673ffffffffffffffffffffffffffffffffffffffff1681526020018273ffffffffffffffffffffffffffffffffffffffff1673ffffffffffffffffffffffffffffffffffffffff168152602001965050505050505060405180910390f35b34801561049657600080fd5b506104c3600480360360208110156104ad57600080fd5b81019080803590602001909291905050506117b1565b604051808273ffffffffffffffffffffffffffffffffffffffff1673ffffffffffffffffffffffffffffffffffffffff16815260200191505060405180910390f35b34801561051157600080fd5b506105546004803603602081101561052857600080fd5b81019080803573ffffffffffffffffffffffffffffffffffffffff1690602001909291905050506117ed565b005b34801561056257600080fd5b506105a56004803603602081101561057957600080fd5b81019080803573ffffffffffffffffffffffffffffffffffffffff1690602001909291905050506118f5565b6040518082815260200191505060405180910390f35b3480156105c757600080fd5b506105d0611941565b6040518082815260200191505060405180910390f35b3480156105f257600080fd5b506105fb61194d565b6040518082815260200191505060405180910390f35b34801561061d57600080fd5b50610626611953565b6040518082815260200191505060405180910390f35b34801561064857600080fd5b5061068b6004803603602081101561065f57600080fd5b81019080803573ffffffffffffffffffffffffffffffffffffffff16906020019092919050505061199d565b604051808215151515815260200191505060405180910390f35b6106ad61086e565b005b3480156106bb57600080fd5b506106fe600480360360208110156106d257600080fd5b81019080803573ffffffffffffffffffffffffffffffffffffffff1690602001909291905050506119f4565b604051808215151515815260200191505060405180910390f35b34801561072457600080fd5b5061072d611a4d565b604051808215151515815260200191505060405180910390f35b34801561075357600080fd5b506107eb6004803603604081101561076a57600080fd5b81019080803573ffffffffffffffffffffffffffffffffffffffff169060200190929190803590602001906401000000008111156107a757600080fd5b8201836020820111156107b957600080fd5b803590602001918460018302840111640100000000831117156107db57600080fd5b9091929391929390505050611a63565b604051808215151515815260200191505060405180910390f35b34801561081157600080fd5b506108546004803603602081101561082857600080fd5b81019080803573ffffffffffffffffffffffffffffffffffffffff169060200190929190505050611e98565b604051808215151515815260200191505060405180910390f35b600060149054906101000a900460ff166108d3576040517f08c379a00000000000000000000000000000000000000000000000000000000081526004018080602001828103825260258152602001806122fc6025913960400191505060405180910390fd5b6000600260003373ffffffffffffffffffffffffffffffffffffffff1673ffffffffffffffffffffffffffffffffffffffff16815260200190815260200160002060020154905061092d3482611ee390919063ffffffff16565b600260003373ffffffffffffffffffffffffffffffffffffffff1673ffffffffffffffffffffffffffffffffffffffff1681526020019081526020016000206002018190555050565b60008173ffffffffffffffffffffffffffffffffffffffff16600260008473ffffffffffffffffffffffffffffffffffffffff1673ffffffffffffffffffffffffffffffffffffffff16815260200190815260200160002060000160009054906101000a900473ffffffffffffffffffffffffffffffffffffffff1673ffffffffffffffffffffffffffffffffffffffff161415610a175760019050610a1c565b600090505b919050565b6000809054906101000a900473ffffffffffffffffffffffffffffffffffffffff1673ffffffffffffffffffffffffffffffffffffffff163373ffffffffffffffffffffffffffffffffffffffff1614610ae3576040517f08c379a000000000000000000000000000000000000000000000000000000000815260040180806020018281038252601c8152602001807f43616c6c6572206973206e6f7420636f6e7472616374206f776e65720000000081525060200191505060405180910390fd5b80600060146101000a81548160ff02191690831515021790555050565b670de0b6b3a764000081565b6000809054906101000a900473ffffffffffffffffffffffffffffffffffffffff1673ffffffffffffffffffffffffffffffffffffffff163373ffffffffffffffffffffffffffffffffffffffff1614610bce576040517f08c379a000000000000000000000000000000000000000000000000000000000815260040180806020018281038252601c8152602001807f43616c6c6572206973206e6f7420636f6e7472616374206f776e65720000000081525060200191505060405180910390fd5b60018060008373ffffffffffffffffffffffffffffffffffffffff1673ffffffffffffffffffffffffffffffffffffffff1681526020019081526020016000208190555050565b600060149054906101000a900460ff16610c7a576040517f08c379a00000000000000000000000000000000000000000000000000000000081526004018080602001828103825260258152602001806122fc6025913960400191505060405180910390fd5b60008090505b600480549050811015610f9d5760006003600060048481548110610ca057fe5b9060005260206000200160009054906101000a900473ffffffffffffffffffffffffffffffffffffffff1673ffffffffffffffffffffffffffffffffffffffff1673ffffffffffffffffffffffffffffffffffffffff168152602001908152602001600020600101848460405180838380828437808301925050509250505090815260200160405180910390205414610f905760006003600060048481548110610d4657fe5b9060005260206000200160009054906101000a900473ffffffffffffffffffffffffffffffffffffffff1673ffffffffffffffffffffffffffffffffffffffff1673ffffffffffffffffffffffffffffffffffffffff16815260200190815260200160002060020154905060006003600060048581548110610dc457fe5b9060005260206000200160009054906101000a900473ffffffffffffffffffffffffffffffffffffffff1673ffffffffffffffffffffffffffffffffffffffff1673ffffffffffffffffffffffffffffffffffffffff1681526020019081526020016000206001018585604051808383808284378083019250505092505050908152602001604051809103902054905060006003600060048681548110610e6757fe5b9060005260206000200160009054906101000a900473ffffffffffffffffffffffffffffffffffffffff1673ffffffffffffffffffffffffffffffffffffffff1673ffffffffffffffffffffffffffffffffffffffff1681526020019081526020016000206001018686604051808383808284378083019250505092505050908152602001604051809103902081905550610f0c600282611f0290919063ffffffff16565b818301016003600060048681548110610f2157fe5b9060005260206000200160009054906101000a900473ffffffffffffffffffffffffffffffffffffffff1673ffffffffffffffffffffffffffffffffffffffff1673ffffffffffffffffffffffffffffffffffffffff1681526020019081526020016000206002018190555050505b8080600101915050610c80565b505050565b60008060008060149054906101000a900460ff1661100b576040517f08c379a00000000000000000000000000000000000000000000000000000000081526004018080602001828103825260258152602001806122fc6025913960400191505060405180910390fd5b3273ffffffffffffffffffffffffffffffffffffffff163373ffffffffffffffffffffffffffffffffffffffff16146110ac576040517f08c379a00000000000000000000000000000000000000000000000000000000081526004018080602001828103825260158152602001807f436f6e747261637473206e6f7420616c6c6f776564000000000000000000000081525060200191505060405180910390fd5b60003411611105576040517f08c379a000000000000000000000000000000000000000000000000000000000815260040180806020018281038252603a815260200180612321603a913960400191505060405180910390fd5b61110e33611f28565b6111795760043390806001815401808255809150509060018203906000526020600020016000909192909190916101000a81548173ffffffffffffffffffffffffffffffffffffffff021916908373ffffffffffffffffffffffffffffffffffffffff160217905550505b3373ffffffffffffffffffffffffffffffffffffffff16600360003373ffffffffffffffffffffffffffffffffffffffff1673ffffffffffffffffffffffffffffffffffffffff16815260200190815260200160002060000160009054906101000a900473ffffffffffffffffffffffffffffffffffffffff1673ffffffffffffffffffffffffffffffffffffffff161461133e5760405180604001604052803373ffffffffffffffffffffffffffffffffffffffff1681526020016000815250600360003373ffffffffffffffffffffffffffffffffffffffff1673ffffffffffffffffffffffffffffffffffffffff16815260200190815260200160002060008201518160000160006101000a81548173ffffffffffffffffffffffffffffffffffffffff021916908373ffffffffffffffffffffffffffffffffffffffff1602179055506020820151816002015590505034600360003373ffffffffffffffffffffffffffffffffffffffff1673ffffffffffffffffffffffffffffffffffffffff16815260200190815260200160002060010186866040518083838082843780830192505050925050509081526020016040518091039020819055506113ab565b34600360003373ffffffffffffffffffffffffffffffffffffffff1673ffffffffffffffffffffffffffffffffffffffff16815260200190815260200160002060010186866040518083838082843780830192505050925050509081526020016040518091039020819055505b670de0b6b3a764000034111561141d573373ffffffffffffffffffffffffffffffffffffffff166108fc6113f0670de0b6b3a764000034611fca90919063ffffffff16565b9081150290604051600060405180830381858888f1935050505015801561141b573d6000803e3d6000fd5b505b9250925092565b600080600080600080600060149054906101000a900460ff16611492576040517f08c379a00000000000000000000000000000000000000000000000000000000081526004018080602001828103825260258152602001806122fc6025913960400191505060405180910390fd5b3273ffffffffffffffffffffffffffffffffffffffff168773ffffffffffffffffffffffffffffffffffffffff1614611533576040517f08c379a00000000000000000000000000000000000000000000000000000000081526004018080602001828103825260158152602001807f436f6e747261637473206e6f7420616c6c6f776564000000000000000000000081525060200191505060405180910390fd5b6000600360008973ffffffffffffffffffffffffffffffffffffffff1673ffffffffffffffffffffffffffffffffffffffff16815260200190815260200160002060020154116115ce576040517f08c379a00000000000000000000000000000000000000000000000000000000081526004018080602001828103825260388152602001806122546038913960400191505060405180910390fd5b60003073ffffffffffffffffffffffffffffffffffffffff163190506000600360008a73ffffffffffffffffffffffffffffffffffffffff1673ffffffffffffffffffffffffffffffffffffffff168152602001908152602001600020600201549050803073ffffffffffffffffffffffffffffffffffffffff1631116116a0576040517f08c379a000000000000000000000000000000000000000000000000000000000815260040180806020018281038252602e815260200180612226602e913960400191505060405180910390fd5b6000600360008b73ffffffffffffffffffffffffffffffffffffffff1673ffffffffffffffffffffffffffffffffffffffff168152602001908152602001600020600201819055508873ffffffffffffffffffffffffffffffffffffffff166108fc829081150290604051600060405180830381858888f1935050505015801561172e573d6000803e3d6000fd5b506000600360008b73ffffffffffffffffffffffffffffffffffffffff1673ffffffffffffffffffffffffffffffffffffffff16815260200190815260200160002060020154905082823073ffffffffffffffffffffffffffffffffffffffff1631838d3081915080905098509850985098509850985050505091939550919395565b600481815481106117be57fe5b906000526020600020016000915054906101000a900473ffffffffffffffffffffffffffffffffffffffff1681565b6000809054906101000a900473ffffffffffffffffffffffffffffffffffffffff1673ffffffffffffffffffffffffffffffffffffffff163373ffffffffffffffffffffffffffffffffffffffff16146118af576040517f08c379a000000000000000000000000000000000000000000000000000000000815260040180806020018281038252601c8152602001807f43616c6c6572206973206e6f7420636f6e7472616374206f776e65720000000081525060200191505060405180910390fd5b600160008273ffffffffffffffffffffffffffffffffffffffff1673ffffffffffffffffffffffffffffffffffffffff1681526020019081526020016000206000905550565b6000600260008373ffffffffffffffffffffffffffffffffffffffff1673ffffffffffffffffffffffffffffffffffffffff168152602001908152602001600020600301549050919050565b678ac7230489e8000081565b60055481565b6000600360003373ffffffffffffffffffffffffffffffffffffffff1673ffffffffffffffffffffffffffffffffffffffff16815260200190815260200160002060020154905090565b6000678ac7230489e80000600260008473ffffffffffffffffffffffffffffffffffffffff1673ffffffffffffffffffffffffffffffffffffffff1681526020019081526020016000206002015410159050919050565b6000600260008373ffffffffffffffffffffffffffffffffffffffff1673ffffffffffffffffffffffffffffffffffffffff16815260200190815260200160002060000160149054906101000a900460ff169050919050565b60008060149054906101000a900460ff16905090565b60008060149054906101000a900460ff16611ac9576040517f08c379a00000000000000000000000000000000000000000000000000000000081526004018080602001828103825260258152602001806122fc6025913960400191505060405180910390fd5b60018060003373ffffffffffffffffffffffffffffffffffffffff1673ffffffffffffffffffffffffffffffffffffffff1681526020019081526020016000205414611b60576040517f08c379a000000000000000000000000000000000000000000000000000000000815260040180806020018281038252602481526020018061228c6024913960400191505060405180910390fd5b600073ffffffffffffffffffffffffffffffffffffffff168473ffffffffffffffffffffffffffffffffffffffff161415611be6576040517f08c379a00000000000000000000000000000000000000000000000000000000081526004018080602001828103825260298152602001806122d36029913960400191505060405180910390fd5b600260008573ffffffffffffffffffffffffffffffffffffffff1673ffffffffffffffffffffffffffffffffffffffff16815260200190815260200160002060000160149054906101000a900460ff1615611c8c576040517f08c379a00000000000000000000000000000000000000000000000000000000081526004018080602001828103825260238152602001806122b06023913960400191505060405180910390fd5b600460ff166005541015611e11576040518060a001604052808573ffffffffffffffffffffffffffffffffffffffff16815260200160011515815260200184848080601f016020809104026020016040519081016040528093929190818152602001838380828437600081840152601f19601f820116905080830192505050505050508152602001600081526020016001815250600260008673ffffffffffffffffffffffffffffffffffffffff1673ffffffffffffffffffffffffffffffffffffffff16815260200190815260200160002060008201518160000160006101000a81548173ffffffffffffffffffffffffffffffffffffffff021916908373ffffffffffffffffffffffffffffffffffffffff16021790555060208201518160000160146101000a81548160ff0219169083151502179055506040820151816001019080519060200190611de2929190612180565b506060820151816002015560808201518160030155905050600560008154809291906001019190505550611e8d565b611e1a84611fea565b611e8c576040517f08c379a000000000000000000000000000000000000000000000000000000000815260040180806020018281038252601e8152602001807f416e206572726f722068617070656e6564207768696c6520766f74696e67000081525060200191505060405180910390fd5b5b600190509392505050565b600060018060008473ffffffffffffffffffffffffffffffffffffffff1673ffffffffffffffffffffffffffffffffffffffff16815260200190815260200160002054149050919050565b600080828401905083811015611ef857600080fd5b8091505092915050565b6000808211611f1057600080fd5b6000828481611f1b57fe5b0490508091505092915050565b600080905060008090505b600480549050811015611fc1578273ffffffffffffffffffffffffffffffffffffffff1660048281548110611f6457fe5b9060005260206000200160009054906101000a900473ffffffffffffffffffffffffffffffffffffffff1673ffffffffffffffffffffffffffffffffffffffff161415611fb45760019150611fc1565b8080600101915050611f33565b50809050919050565b600082821115611fd957600080fd5b600082840390508091505092915050565b60008060149054906101000a900460ff16612050576040517f08c379a00000000000000000000000000000000000000000000000000000000081526004018080602001828103825260258152602001806122fc6025913960400191505060405180910390fd5b6000809050600260008473ffffffffffffffffffffffffffffffffffffffff1673ffffffffffffffffffffffffffffffffffffffff168152602001908152602001600020600301600081548092919060010191905055506120bd6002600554611f0290919063ffffffff16565b600260008573ffffffffffffffffffffffffffffffffffffffff1673ffffffffffffffffffffffffffffffffffffffff1681526020019081526020016000206003015410612173576001600260008573ffffffffffffffffffffffffffffffffffffffff1673ffffffffffffffffffffffffffffffffffffffff16815260200190815260200160002060000160146101000a81548160ff0219169083151502179055506005600081548092919060010191905055505b6001905080915050919050565b828054600181600116156101000203166002900490600052602060002090601f016020900481019282601f106121c157805160ff19168380011785556121ef565b828001600101855582156121ef579182015b828111156121ee5782518255916020019190600101906121d3565b5b5090506121fc9190612200565b5090565b61222291905b8082111561221e576000816000905550600101612206565b5090565b9056fe54686520636f6e7472616374206973206f7574206f662066756e647320746f20706179207468652063726564697454686520636f6d70616e79206469646e27742070757420616e79206d6f6e657920746f206265207769746864726177656420627920796f7543616c6c6572206973206e6f7420616e20617574686f72697a656420636f6e747261637454686973204169726c696e6520697320616c726561647920726567697374657265642e276169726c696e654164647265737327206d75737420626520612076616c696420616464726573732e436f6e74726163742069732063757272656e746c79206e6f74206f7065726174696f6e616c596f75206e65656420746f207061792061746c6561737420736f6d652045544820746f20627579206120666c6967687420696e737572616e6365a265627a7a723158203c1c87688dae835aadccf2e46f70255e3d0af3a77e4b218967f41b5b48f01d8c64736f6c63430005110032",
  "source": "pragma solidity >=0.4.25;\n\nimport \"../node_modules/openzeppelin-solidity/contracts/math/SafeMath.sol\";\n\ncontract FlightSuretyData {\n    using SafeMath for uint256;\n\n    /********************************************************************************************/\n    /*                                       DATA VARIABLES                                     */\n    /********************************************************************************************/\n\n    address private contractOwner;                                      // Account used to deploy contract\n    bool private operational = true;                                    // Blocks all state changes throughout the contract if false\n    // address payable public dataContractAddress;\n    mapping(address => uint256) private authorizedContracts;\n\n    // airlines info\n    struct Airline {\n        address airlineWallet;\n        bool isRegistered;\n        string name;\n        uint256 funded;\n        uint256 votes;\n    }\n    mapping(address => Airline) private airlines;\n\n    // passengers info\n    struct Passenger {\n        address passengerWallet;\n        mapping(string => uint256) boughtFlight;\n        uint256 credit;\n    }\n    mapping(address => Passenger) private passengers;\n    address[] public passengerAddresses;\n\n    uint256 public constant INSURANCE_PRICE_LIMIT = 1 ether;\n    uint256 public constant MINIMUM_FUNDS = 10 ether;\n\n    //multiparty variables\n    uint8 private constant MULTIPARTY_MIN_AIRLINES = 4;\n    uint256 public airlinesCount;\n\n    /********************************************************************************************/\n    /*                                       EVENT DEFINITIONS                                  */\n    /********************************************************************************************/\n\n    /**\n    * @dev Constructor\n    *      The deploying account becomes contractOwner\n    */\n    constructor\n                                (\n                                )\n                                public\n    {\n        contractOwner = msg.sender;\n        airlinesCount = 0;\n        authorizedContracts[msg.sender] = 1;\n        passengerAddresses = new address[](0);\n\n        // \tFirst airline is registered when contract is deployed.\n        airlines[msg.sender] = Airline({\n                                            airlineWallet: msg.sender,\n                                            isRegistered: true,\n                                            name: \"Default Airlines\",\n                                            funded: 0,\n                                            // votes: new address[](0)\n                                            votes: 0\n                                    });\n        airlinesCount++;\n    }\n\n    /********************************************************************************************/\n    /*                                       FUNCTION MODIFIERS                                 */\n    /********************************************************************************************/\n\n    // Modifiers help avoid duplication of code. They are typically used to validate something\n    // before a function is allowed to be executed.\n\n    /**\n    * @dev Modifier that requires the \"operational\" boolean variable to be \"true\"\n    *      This is used on all state changing functions to pause the contract in\n    *      the event there is an issue that needs to be fixed\n    */\n    modifier requireIsOperational()\n    {\n        require(operational, \"Contract is currently not operational\");\n        _;  // All modifiers require an \"_\" which indicates where the function body will be added\n    }\n\n    /**\n    * @dev Modifier that requires the \"ContractOwner\" account to be the function caller\n    */\n    modifier requireContractOwner()\n    {\n        require(msg.sender == contractOwner, \"Caller is not contract owner\");\n        _;\n    }\n\n    /**\n    * @dev Modifier that requires the calling App contract has been authorized\n    */\n    modifier requireIsCallerAuthorized()\n    {\n        require(authorizedContracts[msg.sender] == 1, \"Caller is not an authorized contract\");\n        _;\n    }\n\n    /********************************************************************************************/\n    /*                                       UTILITY FUNCTIONS                                  */\n    /********************************************************************************************/\n\n    /**\n    * @dev Get operating status of contract\n    *\n    * @return A bool that is the current operating status\n    */\n    function isOperational()\n                            public\n                            view\n                            returns(bool)\n    {\n        return operational;\n    }\n\n    function authorizeCaller\n                            (\n                                address contractAddress\n                            )\n                            external\n                            requireContractOwner\n    {\n        authorizedContracts[contractAddress] = 1;\n    }\n\n     function isAuthorized\n                            (\n                                address contractAddress\n                            )\n                            external\n                            view\n                            returns(bool)\n    {\n        return(authorizedContracts[contractAddress] == 1);\n    }\n\n    function deauthorizeCaller\n                            (\n                                address contractAddress\n                            )\n                            external\n                            requireContractOwner\n    {\n        delete authorizedContracts[contractAddress];\n    }\n\n    /**\n    * @dev Sets contract operations on/off\n    *\n    * When operational mode is disabled, all write transactions except for this one will fail\n    */\n    function setOperatingStatus\n                            (\n                                bool mode\n                            )\n                            external\n                            requireContractOwner\n    {\n        operational = mode;\n    }\n\n    /********************************************************************************************/\n    /*                                     SMART CONTRACT FUNCTIONS                             */\n    /********************************************************************************************/\n\n    function isActive ( address airline) public view returns(bool) {\n        return(airlines[airline].funded >= MINIMUM_FUNDS);\n    }\n\n    function isRegistered ( address airline) public view returns(bool) {\n        return(airlines[airline].isRegistered);\n    }\n\n   /**\n    * @dev Add an airline to the registration queue\n    *      Can only be called from FlightSuretyApp contract\n    *\n    */\n    function registerAirline\n                            (\n                                address airlineAddress,\n                                string calldata name\n                            )\n                            external\n                            requireIsOperational\n                            requireIsCallerAuthorized\n                            returns (bool)\n    {\n        require(airlineAddress != address(0), \"'airlineAddress' must be a valid address.\");\n        require(!airlines[airlineAddress].isRegistered, \"This Airline is already registered.\");\n\n        if(airlinesCount < MULTIPARTY_MIN_AIRLINES){\n            airlines[airlineAddress] = Airline({\n                                                airlineWallet: airlineAddress,\n                                                isRegistered: true,\n                                                name: name,\n                                                funded: 0,\n                                                votes: 1\n                                        });\n            airlinesCount++;\n        } else {\n            require(vote(airlineAddress), \"An error happened while voting\");\n        }\n        return (true);\n    }\n\n    function vote (address voted) internal requireIsOperational returns(bool) {\n        bool votingOK = false;\n        airlines[voted].votes++;\n        if (airlines[voted].votes >= airlinesCount.div(2)) {\n            airlines[voted].isRegistered = true;\n            airlinesCount++;\n        }\n        votingOK = true;\n        return votingOK;\n    }\n\n    function getAirlineVotes(address airline) public view returns (uint256 votes) {\n        return (airlines[airline].votes);\n    }\n\n   /**\n    * @dev Buy insurance for a flight\n    *\n    */\n    function buy\n                            (\n                                string calldata flightCode\n                            )\n                            external\n                            payable\n                            requireIsOperational\n                            returns (uint256, address, uint256)\n    {\n        require(msg.sender == tx.origin, \"Contracts not allowed\");\n        require(msg.value > 0, 'You need to pay atleast some ETH to buy a flight insurance');\n\n        if(!checkIfContains(msg.sender)){\n            passengerAddresses.push(msg.sender);\n        }\n        if (passengers[msg.sender].passengerWallet != msg.sender) {\n            passengers[msg.sender] = Passenger({\n                                                passengerWallet: msg.sender,\n                                                credit: 0\n                                        });\n            passengers[msg.sender].boughtFlight[flightCode] = msg.value;\n        } else {\n            passengers[msg.sender].boughtFlight[flightCode] = msg.value;\n        }\n        if (msg.value > INSURANCE_PRICE_LIMIT) {\n            msg.sender.transfer(msg.value.sub(INSURANCE_PRICE_LIMIT));\n        }\n    }\n\n    function checkIfContains(address passenger) internal view returns(bool inList){\n        inList = false;\n        for (uint256 c = 0; c < passengerAddresses.length; c++) {\n            if (passengerAddresses[c] == passenger) {\n                inList = true;\n                break;\n            }\n        }\n        return inList;\n    }\n\n    /**\n     *  @dev Credits payouts to insurees\n    */\n    function creditInsurees\n                                (\n                                    string calldata flightCode\n                                )\n                                external\n                                requireIsOperational\n    {\n        for (uint256 c = 0; c < passengerAddresses.length; c++) {\n            if(passengers[passengerAddresses[c]].boughtFlight[flightCode] != 0) {\n                uint256 savedCredit = passengers[passengerAddresses[c]].credit;\n                uint256 payedPrice = passengers[passengerAddresses[c]].boughtFlight[flightCode];\n                passengers[passengerAddresses[c]].boughtFlight[flightCode] = 0;\n                passengers[passengerAddresses[c]].credit = savedCredit + payedPrice + payedPrice.div(2);\n            }\n        }\n    }\n\n    function getCreditToPay() external view returns (uint256) {\n        return passengers[msg.sender].credit;\n    }\n    /**\n     *  @dev Transfers eligible payout funds to insuree\n     *\n    */\n    function withdraw\n                            (\n                                address payable insuredPassenger\n                            )\n                            public\n                            requireIsOperational\n                            returns (uint256, uint256, uint256, uint256, address, address)\n    {\n        require(insuredPassenger == tx.origin, \"Contracts not allowed\");\n        require(passengers[insuredPassenger].credit > 0, \"The company didn't put any money to be withdrawed by you\");\n        uint256 initialBalance = address(this).balance;\n        uint256 credit = passengers[insuredPassenger].credit;\n        require(address(this).balance > credit, \"The contract is out of funds to pay the credit\");\n        passengers[insuredPassenger].credit = 0;\n        insuredPassenger.transfer(credit);\n        uint256 finalCredit = passengers[insuredPassenger].credit;\n        return (initialBalance, credit, address(this).balance, finalCredit, insuredPassenger, address(this));\n    }\n\n   /**\n    * @dev Initial funding for the insurance. Unless there are too many delayed flights\n    *      resulting in insurance payouts, the contract should be self-sustaining\n    *\n    */\n    function fund\n                            (\n                            )\n                            public\n                            payable\n                            requireIsOperational\n    {\n        uint256 currentFunds = airlines[msg.sender].funded;\n        airlines[msg.sender].funded = currentFunds.add(msg.value);\n    }\n\n    function isAirline (\n                            address airline\n                        )\n                        external\n                        view\n                        returns (bool) {\n        if (airlines[airline].airlineWallet == airline) {\n            return true;\n        } else {\n            return false;\n        }\n    }\n\n    function getFlightKey\n                        (\n                            address airline,\n                            string memory flight,\n                            uint256 timestamp\n                        )\n                        internal\n                        pure\n                        returns(bytes32)\n    {\n        return keccak256(abi.encodePacked(airline, flight, timestamp));\n    }\n\n    /**\n    * @dev Fallback function for funding smart contract.\n    *\n    */\n    function()\n                            external\n                            payable\n    {\n        fund();\n    }\n\n\n}\n\n",
  "sourcePath": "/home/hep-cbe-295/Downloads/ud-benattxurruka/FlightSurety-master/contracts/FlightSuretyData.sol",
  "compiler": {
    "name": "solc",
    "version": "0.5.17+commit.d19bba13.Emscripten.clang"
  },
  "schemaVersion": "3.0.1",
  "updatedAt": "2022-02-12T19:51:48.765Z",
  "devdoc": {
    "methods": {
      "buy(string)": {
        "details": "Buy insurance for a flight    "
      },
      "constructor": {
        "details": "Constructor     The deploying account becomes contractOwner"
      },
      "creditInsurees(string)": {
        "details": "Credits payouts to insurees"
      },
      "fund()": {
        "details": "Initial funding for the insurance. Unless there are too many delayed flights     resulting in insurance payouts, the contract should be self-sustaining    "
      },
      "isOperational()": {
        "details": "Get operating status of contract",
        "return": "A bool that is the current operating status"
      },
      "registerAirline(address,string)": {
        "details": "Add an airline to the registration queue     Can only be called from FlightSuretyApp contract    "
      },
      "setOperatingStatus(bool)": {
        "details": "Sets contract operations on/off    * When operational mode is disabled, all write transactions except for this one will fail"
      },
      "withdraw(address)": {
        "details": "Transfers eligible payout funds to insuree    "
      }
    }
  },
  "userdoc": {
    "methods": {
      "isActive(address)": {
        "notice": "*****************************************************************************************"
      }
    }
  }
}